{
  "_format": "hh-sol-artifact-1",
  "contractName": "L1StandardBridge",
  "sourceName": "contracts/L1/messaging/L1StandardBridge.sol",
  "abi": [
    {
      "inputs": [],
      "stateMutability": "nonpayable",
      "type": "constructor"
    },
    {
      "anonymous": false,
      "inputs": [
        {
          "indexed": true,
          "internalType": "address",
          "name": "_l1Token",
          "type": "address"
        },
        {
          "indexed": true,
          "internalType": "address",
          "name": "_l2Token",
          "type": "address"
        },
        {
          "indexed": true,
          "internalType": "address",
          "name": "_from",
          "type": "address"
        },
        {
          "indexed": false,
          "internalType": "address",
          "name": "_to",
          "type": "address"
        },
        {
          "indexed": false,
          "internalType": "uint256",
          "name": "_amount",
          "type": "uint256"
        },
        {
          "indexed": false,
          "internalType": "bytes",
          "name": "_data",
          "type": "bytes"
        }
      ],
      "name": "ERC20DepositInitiated",
      "type": "event"
    },
    {
      "anonymous": false,
      "inputs": [
        {
          "indexed": true,
          "internalType": "address",
          "name": "_l1Token",
          "type": "address"
        },
        {
          "indexed": true,
          "internalType": "address",
          "name": "_l2Token",
          "type": "address"
        },
        {
          "indexed": true,
          "internalType": "address",
          "name": "_from",
          "type": "address"
        },
        {
          "indexed": false,
          "internalType": "address",
          "name": "_to",
          "type": "address"
        },
        {
          "indexed": false,
          "internalType": "uint256",
          "name": "_amount",
          "type": "uint256"
        },
        {
          "indexed": false,
          "internalType": "bytes",
          "name": "_data",
          "type": "bytes"
        }
      ],
      "name": "ERC20WithdrawalFinalized",
      "type": "event"
    },
    {
      "anonymous": false,
      "inputs": [
        {
          "indexed": true,
          "internalType": "address",
          "name": "_from",
          "type": "address"
        },
        {
          "indexed": true,
          "internalType": "address",
          "name": "_to",
          "type": "address"
        },
        {
          "indexed": false,
          "internalType": "uint256",
          "name": "_amount",
          "type": "uint256"
        },
        {
          "indexed": false,
          "internalType": "bytes",
          "name": "_data",
          "type": "bytes"
        }
      ],
      "name": "ETHDepositInitiated",
      "type": "event"
    },
    {
      "anonymous": false,
      "inputs": [
        {
          "indexed": true,
          "internalType": "address",
          "name": "_from",
          "type": "address"
        },
        {
          "indexed": true,
          "internalType": "address",
          "name": "_to",
          "type": "address"
        },
        {
          "indexed": false,
          "internalType": "uint256",
          "name": "_amount",
          "type": "uint256"
        },
        {
          "indexed": false,
          "internalType": "bytes",
          "name": "_data",
          "type": "bytes"
        }
      ],
      "name": "ETHWithdrawalFinalized",
      "type": "event"
    },
    {
      "inputs": [
        {
          "internalType": "address",
          "name": "_l1Token",
          "type": "address"
        },
        {
          "internalType": "address",
          "name": "_l2Token",
          "type": "address"
        },
        {
          "internalType": "uint256",
          "name": "_amount",
          "type": "uint256"
        },
        {
          "internalType": "uint32",
          "name": "_l2Gas",
          "type": "uint32"
        },
        {
          "internalType": "bytes",
          "name": "_data",
          "type": "bytes"
        }
      ],
      "name": "depositERC20",
      "outputs": [],
      "stateMutability": "nonpayable",
      "type": "function"
    },
    {
      "inputs": [
        {
          "internalType": "address",
          "name": "_l1Token",
          "type": "address"
        },
        {
          "internalType": "address",
          "name": "_l2Token",
          "type": "address"
        },
        {
          "internalType": "address",
          "name": "_to",
          "type": "address"
        },
        {
          "internalType": "uint256",
          "name": "_amount",
          "type": "uint256"
        },
        {
          "internalType": "uint32",
          "name": "_l2Gas",
          "type": "uint32"
        },
        {
          "internalType": "bytes",
          "name": "_data",
          "type": "bytes"
        }
      ],
      "name": "depositERC20To",
      "outputs": [],
      "stateMutability": "nonpayable",
      "type": "function"
    },
    {
      "inputs": [
        {
          "internalType": "uint32",
          "name": "_l2Gas",
          "type": "uint32"
        },
        {
          "internalType": "bytes",
          "name": "_data",
          "type": "bytes"
        }
      ],
      "name": "depositETH",
      "outputs": [],
      "stateMutability": "payable",
      "type": "function"
    },
    {
      "inputs": [
        {
          "internalType": "address",
          "name": "_to",
          "type": "address"
        },
        {
          "internalType": "uint32",
          "name": "_l2Gas",
          "type": "uint32"
        },
        {
          "internalType": "bytes",
          "name": "_data",
          "type": "bytes"
        }
      ],
      "name": "depositETHTo",
      "outputs": [],
      "stateMutability": "payable",
      "type": "function"
    },
    {
      "inputs": [
        {
          "internalType": "address",
          "name": "",
          "type": "address"
        },
        {
          "internalType": "address",
          "name": "",
          "type": "address"
        }
      ],
      "name": "deposits",
      "outputs": [
        {
          "internalType": "uint256",
          "name": "",
          "type": "uint256"
        }
      ],
      "stateMutability": "view",
      "type": "function"
    },
    {
      "inputs": [],
      "name": "donateETH",
      "outputs": [],
      "stateMutability": "payable",
      "type": "function"
    },
    {
      "inputs": [
        {
          "internalType": "address",
          "name": "_l1Token",
          "type": "address"
        },
        {
          "internalType": "address",
          "name": "_l2Token",
          "type": "address"
        },
        {
          "internalType": "address",
          "name": "_from",
          "type": "address"
        },
        {
          "internalType": "address",
          "name": "_to",
          "type": "address"
        },
        {
          "internalType": "uint256",
          "name": "_amount",
          "type": "uint256"
        },
        {
          "internalType": "bytes",
          "name": "_data",
          "type": "bytes"
        }
      ],
      "name": "finalizeERC20Withdrawal",
      "outputs": [],
      "stateMutability": "nonpayable",
      "type": "function"
    },
    {
      "inputs": [
        {
          "internalType": "address",
          "name": "_from",
          "type": "address"
        },
        {
          "internalType": "address",
          "name": "_to",
          "type": "address"
        },
        {
          "internalType": "uint256",
          "name": "_amount",
          "type": "uint256"
        },
        {
          "internalType": "bytes",
          "name": "_data",
          "type": "bytes"
        }
      ],
      "name": "finalizeETHWithdrawal",
      "outputs": [],
      "stateMutability": "nonpayable",
      "type": "function"
    },
    {
      "inputs": [
        {
          "internalType": "address",
          "name": "_l1messenger",
          "type": "address"
        },
        {
          "internalType": "address",
          "name": "_l2TokenBridge",
          "type": "address"
        }
      ],
      "name": "initialize",
      "outputs": [],
      "stateMutability": "nonpayable",
      "type": "function"
    },
    {
      "inputs": [],
      "name": "l2TokenBridge",
      "outputs": [
        {
          "internalType": "address",
          "name": "",
          "type": "address"
        }
      ],
      "stateMutability": "view",
      "type": "function"
    },
    {
      "inputs": [],
      "name": "messenger",
      "outputs": [
        {
          "internalType": "address",
          "name": "",
          "type": "address"
        }
      ],
      "stateMutability": "view",
      "type": "function"
    },
    {
      "stateMutability": "payable",
      "type": "receive"
    }
  ],
  "bytecode": "0x608060405234801561001057600080fd5b50600080546001600160a01b0319169055611762806100306000396000f3fe6080604052600436106100c05760003560e01c80638b4c40b0116100745780639a2ac6d51161004e5780639a2ac6d514610261578063a9f9e67514610274578063b1a1a8821461029457600080fd5b80638b4c40b0146101375780638f601f66146101fb57806391c49bf81461024157600080fd5b8063485cc955116100a5578063485cc9551461019b57806358a997f6146101bb578063838b2520146101db57600080fd5b80631532ec341461013e5780633cb747bf1461015e57600080fd5b3661013957333b156101195760405162461bcd60e51b815260206004820152600f60248201527f4163636f756e74206e6f7420454f41000000000000000000000000000000000060448201526064015b60405180910390fd5b610137333362030d40604051806020016040528060008152506102a7565b005b600080fd5b34801561014a57600080fd5b50610137610159366004611148565b6103cc565b34801561016a57600080fd5b5060005461017e906001600160a01b031681565b6040516001600160a01b0390911681526020015b60405180910390f35b3480156101a757600080fd5b506101376101b63660046111bb565b6106b3565b3480156101c757600080fd5b506101376101d636600461120d565b610778565b3480156101e757600080fd5b506101376101f6366004611290565b6107df565b34801561020757600080fd5b506102336102163660046111bb565b600260209081526000928352604080842090915290825290205481565b604051908152602001610192565b34801561024d57600080fd5b5060015461017e906001600160a01b031681565b61013761026f366004611326565b6107f8565b34801561028057600080fd5b5061013761028f366004611389565b610840565b6101376102a2366004611402565b610ab9565b600063662a633a60e01b600073deaddeaddeaddeaddeaddeaddeaddeaddead0000878734876040516024016102e1969594939291906114cb565b604080517fffffffffffffffffffffffffffffffffffffffffffffffffffffffffffffffe08184030181529190526020810180517bffffffffffffffffffffffffffffffffffffffffffffffffffffffff167fffffffff0000000000000000000000000000000000000000000000000000000090931692909217909152600154909150610378906001600160a01b03168483610b4f565b836001600160a01b0316856001600160a01b03167f35d79ab81f2b2017e19afb5c5571778877782d7a8786f5907f93b0f4702f4f2334856040516103bd929190611519565b60405180910390a35050505050565b6001546001600160a01b03166103ea6000546001600160a01b031690565b6001600160a01b0316336001600160a01b0316146104705760405162461bcd60e51b815260206004820152602e60248201527f4f564d5f58434841494e3a206d657373656e67657220636f6e7472616374207560448201527f6e61757468656e746963617465640000000000000000000000000000000000006064820152608401610110565b806001600160a01b031661048c6000546001600160a01b031690565b6001600160a01b0316636e296e456040518163ffffffff1660e01b815260040160206040518083038186803b1580156104c457600080fd5b505afa1580156104d8573d6000803e3d6000fd5b505050506040513d601f19601f820116820180604052508101906104fc9190611532565b6001600160a01b0316146105785760405162461bcd60e51b815260206004820152603060248201527f4f564d5f58434841494e3a2077726f6e672073656e646572206f662063726f7360448201527f732d646f6d61696e206d657373616765000000000000000000000000000000006064820152608401610110565b604080516000808252602082019092526001600160a01b0387169086906040516105a29190611556565b60006040518083038185875af1925050503d80600081146105df576040519150601f19603f3d011682016040523d82523d6000602084013e6105e4565b606091505b505090508061065b5760405162461bcd60e51b815260206004820152603460248201527f5472616e7366657248656c7065723a3a736166655472616e736665724554483a60448201527f20455448207472616e73666572206661696c65640000000000000000000000006064820152608401610110565b856001600160a01b0316876001600160a01b03167f2ac69ee804d9a7a0984249f508dfab7cb2534b465b6ce1580f99a38ba9c5e6318787876040516106a2939291906115bb565b60405180910390a350505050505050565b6000546001600160a01b0316156107325760405162461bcd60e51b815260206004820152602660248201527f436f6e74726163742068617320616c7265616479206265656e20696e6974696160448201527f6c697a65642e00000000000000000000000000000000000000000000000000006064820152608401610110565b600080546001600160a01b039384167fffffffffffffffffffffffff00000000000000000000000000000000000000009182161790915560018054929093169116179055565b333b156107c75760405162461bcd60e51b815260206004820152600f60248201527f4163636f756e74206e6f7420454f4100000000000000000000000000000000006044820152606401610110565b6107d78686333388888888610bca565b505050505050565b6107ef8787338888888888610bca565b50505050505050565b61083a33858585858080601f0160208091040260200160405190810160405280939291908181526020018383808284376000920191909152506102a792505050565b50505050565b6001546001600160a01b031661085e6000546001600160a01b031690565b6001600160a01b0316336001600160a01b0316146108e45760405162461bcd60e51b815260206004820152602e60248201527f4f564d5f58434841494e3a206d657373656e67657220636f6e7472616374207560448201527f6e61757468656e746963617465640000000000000000000000000000000000006064820152608401610110565b806001600160a01b03166109006000546001600160a01b031690565b6001600160a01b0316636e296e456040518163ffffffff1660e01b815260040160206040518083038186803b15801561093857600080fd5b505afa15801561094c573d6000803e3d6000fd5b505050506040513d601f19601f820116820180604052508101906109709190611532565b6001600160a01b0316146109ec5760405162461bcd60e51b815260206004820152603060248201527f4f564d5f58434841494e3a2077726f6e672073656e646572206f662063726f7360448201527f732d646f6d61696e206d657373616765000000000000000000000000000000006064820152608401610110565b6001600160a01b038089166000908152600260209081526040808320938b1683529290522054610a1d90859061160d565b6001600160a01b03808a166000818152600260209081526040808320948d1683529390529190912091909155610a54908686610d46565b856001600160a01b0316876001600160a01b0316896001600160a01b03167f3ceee06c1e37648fcbb6ed52e17b3e1f275a1f8c7b22a84b2b84732431e046b388888888604051610aa79493929190611624565b60405180910390a45050505050505050565b333b15610b085760405162461bcd60e51b815260206004820152600f60248201527f4163636f756e74206e6f7420454f4100000000000000000000000000000000006044820152606401610110565b610b4a33338585858080601f0160208091040260200160405190810160405280939291908181526020018383808284376000920191909152506102a792505050565b505050565b6000546040517f3dbb202b0000000000000000000000000000000000000000000000000000000081526001600160a01b0390911690633dbb202b90610b9c90869085908790600401611657565b600060405180830381600087803b158015610bb657600080fd5b505af11580156107ef573d6000803e3d6000fd5b610bdf6001600160a01b038916873087610e0d565b600063662a633a60e01b89898989898888604051602401610c06979695949392919061168f565b604080517fffffffffffffffffffffffffffffffffffffffffffffffffffffffffffffffe08184030181529190526020810180517bffffffffffffffffffffffffffffffffffffffffffffffffffffffff167fffffffff0000000000000000000000000000000000000000000000000000000090931692909217909152600154909150610c9d906001600160a01b03168583610b4f565b6001600160a01b03808a166000908152600260209081526040808320938c1683529290522054610cce9086906116df565b6001600160a01b03808b1660008181526002602090815260408083208e86168085529252918290209490945551918a1692917f718594027abd4eaed59f95162563e0cc6d0e8d5b86b1c7be8b1b0ac3343d039690610d33908b908b908a908a90611624565b60405180910390a4505050505050505050565b6040516001600160a01b038316602482015260448101829052610b4a9084907fa9059cbb00000000000000000000000000000000000000000000000000000000906064015b604080517fffffffffffffffffffffffffffffffffffffffffffffffffffffffffffffffe08184030181529190526020810180517bffffffffffffffffffffffffffffffffffffffffffffffffffffffff167fffffffff0000000000000000000000000000000000000000000000000000000090931692909217909152610e5e565b6040516001600160a01b038085166024830152831660448201526064810182905261083a9085907f23b872dd0000000000000000000000000000000000000000000000000000000090608401610d8b565b6000610eb3826040518060400160405280602081526020017f5361666545524332303a206c6f772d6c6576656c2063616c6c206661696c6564815250856001600160a01b0316610f439092919063ffffffff16565b805190915015610b4a5780806020019051810190610ed191906116f7565b610b4a5760405162461bcd60e51b815260206004820152602a60248201527f5361666545524332303a204552433230206f7065726174696f6e20646964206e60448201527f6f742073756363656564000000000000000000000000000000000000000000006064820152608401610110565b6060610f528484600085610f5a565b949350505050565b606082471015610fd25760405162461bcd60e51b815260206004820152602660248201527f416464726573733a20696e73756666696369656e742062616c616e636520666f60448201527f722063616c6c00000000000000000000000000000000000000000000000000006064820152608401610110565b600080866001600160a01b03168587604051610fee9190611556565b60006040518083038185875af1925050503d806000811461102b576040519150601f19603f3d011682016040523d82523d6000602084013e611030565b606091505b50915091506110418783838761104c565b979650505050505050565b606083156110b85782516110b1576001600160a01b0385163b6110b15760405162461bcd60e51b815260206004820152601d60248201527f416464726573733a2063616c6c20746f206e6f6e2d636f6e74726163740000006044820152606401610110565b5081610f52565b610f5283838151156110cd5781518083602001fd5b8060405162461bcd60e51b81526004016101109190611719565b6001600160a01b03811681146110fc57600080fd5b50565b60008083601f84011261111157600080fd5b50813567ffffffffffffffff81111561112957600080fd5b60208301915083602082850101111561114157600080fd5b9250929050565b60008060008060006080868803121561116057600080fd5b853561116b816110e7565b9450602086013561117b816110e7565b935060408601359250606086013567ffffffffffffffff81111561119e57600080fd5b6111aa888289016110ff565b969995985093965092949392505050565b600080604083850312156111ce57600080fd5b82356111d9816110e7565b915060208301356111e9816110e7565b809150509250929050565b803563ffffffff8116811461120857600080fd5b919050565b60008060008060008060a0878903121561122657600080fd5b8635611231816110e7565b95506020870135611241816110e7565b945060408701359350611256606088016111f4565b9250608087013567ffffffffffffffff81111561127257600080fd5b61127e89828a016110ff565b979a9699509497509295939492505050565b600080600080600080600060c0888a0312156112ab57600080fd5b87356112b6816110e7565b965060208801356112c6816110e7565b955060408801356112d6816110e7565b9450606088013593506112eb608089016111f4565b925060a088013567ffffffffffffffff81111561130757600080fd5b6113138a828b016110ff565b989b979a50959850939692959293505050565b6000806000806060858703121561133c57600080fd5b8435611347816110e7565b9350611355602086016111f4565b9250604085013567ffffffffffffffff81111561137157600080fd5b61137d878288016110ff565b95989497509550505050565b600080600080600080600060c0888a0312156113a457600080fd5b87356113af816110e7565b965060208801356113bf816110e7565b955060408801356113cf816110e7565b945060608801356113df816110e7565b93506080880135925060a088013567ffffffffffffffff81111561130757600080fd5b60008060006040848603121561141757600080fd5b611420846111f4565b9250602084013567ffffffffffffffff81111561143c57600080fd5b611448868287016110ff565b9497909650939450505050565b60005b83811015611470578181015183820152602001611458565b8381111561083a5750506000910152565b60008151808452611499816020860160208601611455565b601f017fffffffffffffffffffffffffffffffffffffffffffffffffffffffffffffffe0169290920160200192915050565b60006001600160a01b0380891683528088166020840152808716604084015280861660608401525083608083015260c060a083015261150d60c0830184611481565b98975050505050505050565b828152604060208201526000610f526040830184611481565b60006020828403121561154457600080fd5b815161154f816110e7565b9392505050565b60008251611568818460208701611455565b9190910192915050565b8183528181602085013750600060208284010152600060207fffffffffffffffffffffffffffffffffffffffffffffffffffffffffffffffe0601f840116840101905092915050565b8381526040602082015260006115d5604083018486611572565b95945050505050565b7f4e487b7100000000000000000000000000000000000000000000000000000000600052601160045260246000fd5b60008282101561161f5761161f6115de565b500390565b6001600160a01b038516815283602082015260606040820152600061164d606083018486611572565b9695505050505050565b6001600160a01b03841681526060602082015260006116796060830185611481565b905063ffffffff83166040830152949350505050565b60006001600160a01b03808a1683528089166020840152808816604084015280871660608401525084608083015260c060a08301526116d260c083018486611572565b9998505050505050505050565b600082198211156116f2576116f26115de565b500190565b60006020828403121561170957600080fd5b8151801515811461154f57600080fd5b60208152600061154f602083018461148156fea26469706673582212208ef4d5d72e4e7087bc9cf0fc4078f02887b7f1b6ed511212b53a7677e1d59c8964736f6c63430008090033",
  "linkReferences": {},
  "deployedLinkReferences": {}
}